:100000000040002011000000FD040000FD0400007D
:1000100010B501F039F900F035FC00F08FFA00005E
:1000200070B572B699221C4B1C4D1A601C4B953A48
:100030001A601C4B7C321A601B4B763A1A601B4AC2
:100040001B4B18201A6002221A4B00241A6012233C
:100050002B6001F071F8F022174B12011A60174A59
:10006000174B18491A604022174B0D201C60174B84
:100070001A6000F095FF0D2000F0BEFF144B200029
:100080001C6001F009F9112303222B60114B1A6047
:10009000114B1D321A6070BD000302403000104049
:1000A0000000044008000440000304403104000044
:1000B00008030440180304400003014040FF00808F
:1000C0000000014025130000280003400401014006
:1000D0000C02224030003040000E3F400000000083
:1000E0000000000000000000000000000000000010
:1000F0000000000000000000000000000000000000
:1001000010B5064C2378002B07D1054B002B02D0ED
:10011000044800E000BF0123237010BD4801002007
:1001200000000000FC1F0000084B10B5002B03D09E
:100130000749084800E000BF07480368002B00D1CA
:1001400010BD064B002BFBD09847F9E700000000DC
:100150004C010020FC1F0000B8000020000000003F
:1001600010B5054C200001F04FF820686368010BC2
:10017000000589B2184310BDAC010020F8B5FFF7A7
:10018000EFFF00250C0422002B00801859412B00A2
:10019000220C801A99410B04040C1C43584B594DF6
:1001A000E118594B0A091A40584B09011940584B9C
:1001B0000A43D21893082B40564D92002A4013430D
:1001C000554AAC46554E9B18554D5A085B00324077
:1001D0002B401343534A54499B18544A1F0A1B028D
:1001E0000F4013403B4307013A00F027504D3F03B7
:1001F0002B60504B174023401F434F4B4B4AFF1877
:100200003B0A3F0217400B404C4A3B439B183D4A78
:100210009F08DB43174062469B0013401F43484B37
:10022000394AFF18FB431B091340384A3F01174066
:10023000444A3B439B183A4A5F085B0037401340EF
:100240003B436B60F02307041B053B403E4F374A9E
:1002500027403B43F02707401F433C4B0002FF1859
:10026000FB433F021B0A17400B40394A3B439B1894
:100270001F09DB43244A1B011740244A13401F4334
:10028000344B204AFF18FF43BB0813406246BF00AF
:100290001740314A3B439B18214A5F085B003740B7
:1002A00013403B43AB602D4B1C40F0231B01184017
:1002B0000443E0436400400814400640284B2643B2
:1002C000F6183309F643104A360113400F4A164018
:1002D0001E43244B154AF618F34336021B0A1940F5
:1002E0003240214B0A43D218D243064993080B40AF
:1002F000614692000A401A431C4BD218EA60F8BDCE
:1003000059C9947F333333330F0F0F0FF0F0F0F0F0
:100310004E384E0ACCCCCCCCDC84235755555555A1
:10032000AAAAAAAA247BDCA8FF00FF0000FF00FF06
:10033000B4010020FFFFF0FF41BD4B3946F6AC3F52
:10034000DAE94D414299797E0FFFFFF02DB1F6B207
:10035000B2C3ED1B731F94F5DBAEE973FFF0FFFF33
:1003600038E47C2339DEC7D99A0FEC4100C1C62896
:100370000023F0B585B06946114A9A1812785A548C
:100380000133102BF7D1009B1FBA019B1EBA029BB1
:100390001DBA039B1CBAFFF7F1FE0A4B00201A6836
:1003A00097420AD15A68964207D19A68954204D179
:1003B000D868001B4342434158B2C0B205B0F0BDFB
:1003C000F0F7FF0FB401002010B590B040220B49A8
:1003D000684601F0D7F9002318006C4608495A42D4
:1003E00059180978A25C914201D00130C0B2013B9A
:1003F0001A004032F1D110B010BDC04600200000FC
:10040000FF27000010B50A2000F022FE094800F086
:1004100065F80A2000F01CFE8022074B52001A608B
:10042000064A074B1A604022064B1A6000F076FC21
:1004300010BDC046402000000003014041FF008085
:1004400000000140B000002010B500F0D1F800F02D
:10045000D1FF002811D1063000F0B4FF012000F0D8
:10046000BDFF00F0C7FF002803D100F0ABFFFFF78E
:10047000C9FF002000F0A6FF14E000F0DBFF002819
:1004800010D1063000F0BEFF012000F0C7FF00F0E1
:10049000D1FF002803D100F0B5FFFFF7B3FF002024
:1004A00000F0B0FFFFF764FF002805D0642000F0E3
:1004B000CFFD00F033FC08E0FFF786FF002801D1F4
:1004C00000F02CFC044800F009F8642000F0C0FDA6
:1004D00000F09CF8FEE7C046532000000FB400B5C2
:1004E000B5B036AA02CA02A8019201F075F902A8B5
:1004F00000F036F935B008BC04B0184710B501F06B
:1005000015F903680C2B00D1FEE7FEE7030010B5D8
:1005100080240849084A08686401C3189A1AA2424C
:1005200001DC0B6005E001F001F90C230360012000
:10053000404210BDBC00002018020020F8B5002584
:100540000F49104B01394A1C14D000221F685C6807
:100550009E68A018B24203D0B858A0500432F8E701
:100560000200DE68141AA64201D020C2FAE7103356
:100570000139E8E701F0E0F8FFF766FFFEE7C04663
:10058000010000001C210000002370B50B480C4C3A
:100590000C4D9A002100032B00D8A958013381503B
:1005A0002C2BF6D1FFF73CFD074B1A68002A00D12F
:1005B0001A608022054B92051A6070BD0000002071
:1005C000FD04000000000000B000002008ED00E085
:1005D0008021064A10B5136809060B4313600820F2
:1005E00000F00AFD00F096F810BDC046000025405E
:1005F00010B5054C2378002B03D100F01DF8012322
:100600002370FFF7E5FF10BD6401002010B508203E
:1006100000F0FCFC00F090F8054A082013685B002D
:100620005B0813600022034B1A6000F0F9FC10BD58
:1006300000002540880F254070B5002407210425BF
:100640001C4A1D4B08201A601C4B1D4A1C601D4B88
:100650001A601D4B1D4A13601D4A11601D4A063960
:1006600014601D4A11601D4A13601D4B1C601D4B18
:100670001D6000F0CBFC0321082000F09DFC1A490E
:10068000082000F08DFC194B1C60194B1C60194BA5
:100690001C60194B1C60194B1D60194B1C601A68BB
:1006A000184B1A80184B1C60184B1C60184B1C70A0
:1006B00070BDC0460C0000020000254040002540EF
:1006C00001000A0048002540070000800003254083
:1006D0000403254010032540440025400002254026
:1006E0000402254050002540E9140000880E2540F2
:1006F000C80E2540480F2540080F2540C80F25404B
:10070000880F25406C010020C8010020C401002092
:10071000CC010020F021054A13688B4360390B435C
:100720001360034B1A88034B1A60704700030240A2
:100730006C010020880F2540F021064A13688B4386
:100740001360054B1A68E423DB001340034A13804F
:100750007047C04600030240880F25406C0100200E
:1007600010B504000134631E1878002802D000F090
:10077000A1FEF7E710BD004770B506000D0014009C
:10078000002802D0002000F055FC00207519002C34
:1007900005D0013C2B191B78C018C0B2F7E770BD1B
:1007A000FF23020070B59A43C0B01300541C6A4680
:1007B000FF34D51A1E78EE540133A342FAD1C3B2E6
:1007C000D45C8C4205D0000AD15480B2110000F0F4
:1007D0003BFB40B070BD0000013810B50B2830D88D
:1007E0000902494200F002FF06080A0C0E1014121A
:1007F00016191B20174B13E0174B16E0174B0AE096
:10080000174B12E0174B0BE0174B09E0174B02E0B8
:10081000174B00E0174BC91817E0174B05E0174BB3
:10082000C9180878C0B214E0154BC9180A7848787E
:100830008C780002230418430300C8781343000691
:1008400006E0002000F0F6FB00210B78487800025B
:10085000184310BDC0FF0100C1FF0100C5FF01002A
:10086000C9FF0100D0FF0100D1FF0100D6FF010048
:10087000D2FF0100D4FF0100D8FF0100DCFF01001E
:10088000E0FF01000C4B10B51A68102313400B4A0F
:1008900000D113601368802B0DD1002402202100A9
:1008A0001460FFF799FFA04205D021000220FFF756
:1008B00093FFFFF760FF10BD54000340B00000201D
:1008C000F8B5010004000320FFF786FF21000600B1
:1008D0000420FFF781FF210007000620FFF77CFFBF
:1008E0000025012828D021000320FFF775FF0136DD
:1008F0003602F7192E0001300002B84209D20378FF
:100900005A1ED2B2FD2A00D80126ED18EDB20130F0
:10091000F3E721000120FFF75FFF6D42EBB20625F0
:10092000834209D1002E07D0044B24026042C01834
:100930000121FFF735FF00252800F8BDD1FF010098
:10094000F0B5C24CA54400F009FE62B6002700973E
:100950000197962103AC46ADFF23220049002800F1
:1009600000F004FE0028F4D12188062900D8AFE168
:100970002A780423012A5CD16E88F21D8A4200D9AC
:1009800086E0962149008A4200D981E0AA1992792D
:10099000172A4ED1F3189BB2002B08D0DCAAAC4921
:1009A000D21852181278013B801880B2F3E7AB19C5
:1009B0005A7940421B79120280B21A4308238242BC
:1009C00037D167E0342B00D0D6E0009B012B00D05C
:1009D0007EE1032E00D07BE180220021520091A80D
:1009E000802700F0D8FE7F00182191ABD819FF3185
:1009F00002ABF21EC91800F0C5FE0423F619FF333E
:100A0000B6B29E4200D01BE116228B21FF3202AB10
:100A10009B18490002AA521810781B78000218434C
:100A20008C4B0700984200D824E1FF3BFF3B00932A
:100A30000933002546A8012143702B0AC370002307
:100A400002AA06320170291D1580857089B200291D
:100A500009D0DCAC7E4E6418A419247801391B1926
:100A60009BB289B2F3E7DCA97B4C49195B420C19B4
:100A70009BB22370794C1B0A0C192370784B0735F5
:100A8000C91817230B70A9B27F3300F0A0FD60E7EF
:100A90000323CEE76B782C79180031380A282ED939
:100AA000704A1568002D26D0009A012A25D106AC7F
:100AB00002AA13725681002147AE0C22200005962F
:100AC00000F069FEA660210004A8A8472623A58897
:100AD000FF339D4202D9A368B34207D0A268002A1F
:100AE00001D1002D04D12368DBB2A3E70E23A0E7D8
:100AF0000E2315009EE705239CE7052399E700F0E8
:100B00007FFD0B001B00CFFF61FF4300CFFF4900BB
:100B10005D0061FF7B009200009B012B00D0D7E0BD
:100B2000002E00D0D4E03000FFF7CAFE434243411C
:100B30002B713300009D7DE7009B012B00D0C7E0A7
:100B4000012E00D0C4E0002C00D0C1E0464B1B6851
:100B50001B685A0CD2B2002A02D1DB03DB0D01E084
:100B600080239B002B711B0A6B71FF23AB71FE3B33
:100B7000EB71002304255DE7009B012B00D0A7E06B
:100B8000022E00D8A4E02FE7009B012B00D09FE0AD
:100B90000027DEE6009B012B00D099E02C33F519ED
:100BA000FF339D4200DD73E791ABD819320047A9AE
:100BB00000F0E8FD0023AFB21D003BE7062E00D099
:100BC00086E02A4A06AB94461000190014C814C1E6
:100BD0006246013EF6B29019A919007A0979884255
:100BE00076D1002EF5D147AA03CB03C201233700EB
:100BF0000093082533001DE7009B012B68D1032ECD
:100C000066D116228B21FF3202AB9B18490002AA43
:100C1000521816781B7836021E430E4B9E4259D945
:100C2000F63BFF3B05E70020FFF74AFE002802D114
:100C300080220F4B1A6000F095FC00F0FDF947E0B0
:100C400001230027009302333D00F3E68CFCFFFFF5
:100C5000A7FDFFFFFF010000ACFDFFFFADFDFFFFA3
:100C6000AEFDFFFF70010020C00000209C200000AE
:100C7000B0000020274B1B681A68130AD2B29BB23F
:100C8000002A01D001339BB26402381984B29C421D
:100C900014D3019B002B0BD180221900520006A80F
:100CA00000F079FD06A91C4800F0CEF8012301935D
:100CB00091A9200000F0C8F8002804D001230027E3
:100CC00000930933C0E70123070000930300BBE74B
:100CD0000423AEE680226102891909025200002035
:100CE000FFF74AFD0500002C0ED10B4B9E420BD1A5
:100CF00021000520FFF770FD21002D1A0620FFF7C7
:100D00006BFDEDB22D1AEDB26D4246AB1D710023A5
:100D100001258FE6C0000020FF01000070B5002013
:100D2000FFF7CEFD431E98410624134D40422B6829
:100D300004401A68C021C03A0020FFF71DFD6B680F
:100D40001B78181AC0B2834203D12B681B68002B92
:100D500002D1002000F06EF9084B19681A004029F2
:100D600001D0002C03D000231360FFF7E9FD80229F
:100D70001A6000F061F970BDC0000020B0000020D2
:100D800082B06A460B4B0C4900930C4B01930C4B01
:100D90001A600C4A1160C0461A68120F0F2A04D05C
:100DA0001A680020120F0A2A01D01868C0B202B0D7
:100DB0007047C046B6E900001600008074010020AC
:100DC0000800104004001040094B0A4A0A491A6002
:100DD0000A4A1160C0461A68120F0F2A04D01A6816
:100DE0000020120F0A2A01D01868C0B27047C0460E
:100DF00008001040B6E80000150000800400104014
:100E000082B06A460B4B0C4900930C4B01930C4B80
:100E10001A600C4A1160C0461A68120F0F2A04D0DB
:100E20001A680020120F0A2A01D01868C0B202B056
:100E30007047C046B6EA0000170000807401002029
:100E40000800104004001040F0B50024304BC7B03B
:100E5000029406000394984255D8A14253D08022B0
:100E600006A8520000F08EFC2A4B2B4D0493FF2362
:100E70002A492B4A04AF7B602F600A60C0462A686B
:100E80000191120F0F2A03D02A68120F0A2A01D0EB
:100E90002C681C400294029B002B36D100F0DDFA36
:100EA0000400FFF76DFF0390039B002B02D1FFF7B7
:100EB0008BFF0290029B002B16D11A4A1A4904920A
:100EC000049A0198360416430496134A2F60016071
:100ED000C0462968090F0F2903D01168090F0A2994
:100EE00001D01368DBB20293039B002B07D1FFF7FD
:100EF00087FF0390039B002B01D0039B02932000EC
:100F000000F0AFFA01E004230293029847B0F0BD6D
:100F1000FF010000B6D70000080010400400104098
:100F200004000080B6D800000500008070B5050000
:100F300000F093FA0400102D04D803210E4A136820
:100F40008B4307E0202D07D803210B4A13688B43FE
:100F500002390B4313600AE0302D05D80321064AFD
:100F600013688B430139F4E7002000F063F8200098
:100F700000F077FA70BDC04630001040024A034BC3
:100F800011680B401360704700002240FFFFFFBF55
:100F9000024B18684000C00F7047C0460000224056
:100FA0001B2800D901BE034B8000C31818681960C4
:100FB0007047C04640000020F8B504000E00032929
:100FC00000D901BE1B2C00D901BE032725003D40DE
:100FD000BD400635AF40AE4000F03FFAA408054BD7
:100FE000A400E4182368BB431E43266000F039FACE
:100FF000F8BDC04600E400E01F2318401E3B8340BC
:10100000014A13607047C04600E100E01F2318400A
:101010001E3B8340014A13607047C04680E100E0F8
:101020001F2318401E3B8340014A13607047C0468F
:1010300080E200E001BE7047034A044913689BB296
:101040000B4313607047C0460CED00E00400FA0546
:1010500070B5802504002D02064BAC4205D95868B6
:1010600000F0F2F9044BE418F6E79868604300F0EA
:10107000EBF970BDC80000200080FFFF37B500F01D
:10108000FDF8002842D000F0E8F91C21204B214A4D
:101090001B6812689B008A400B40920F1833D340A4
:1010A00080251D491D4A04000868ED0110401C4AB6
:1010B0005A435219D20B013A0243192B01D8194B4A
:1010C0000EE0194D19481818EB18A0251A3B0078A6
:1010D0001B786D031B182A43FF2B00D9FF239B05A8
:1010E0001A43134D0A602B6830200193FFF71EFF4F
:1010F0008021104AC905136814200B431360FFF7C1
:10110000A7FF019B20002B6000F0ABF937BDC04664
:10111000080F0340280003400800224000F800C0E8
:1011200040420F000000D43FAA2000004DF3FF0F03
:101130003000104000002240F7B50500183D0400C3
:10114000182D46D80126244B3700EB409F4340D151
:1011500000F083F90190FFF71BFF0097002802D0F1
:10116000FFF70CFF009607271C4E1D4A33681D49E8
:10117000BB4333601C4BE3181B78DBB213601B4A84
:101180001368BB4313601A4B0A68E31818787F236F
:101190009A43034013430B60322000F055F9182C9A
:1011A0000ED033681C3CA408BB433C401C43346055
:1011B000322000F049F93368AD08BB431D43356068
:1011C000009B012B01D1FFF759FF019800F049F96D
:1011D00000E001BEF7BDC04611111101080F034028
:1011E0000C0F0340180F03404DF3FF0F100F034087
:1011F00034F3FF0F10B5034B1B7B584300F024F969
:1012000010BDC046C8000020144B1A78144BD1B250
:1012100001601B781B020B431A000360114B1B7803
:101220001B041343104A0360127812061343036031
:101230000E4B1A780E4BD1B241601B781B020B4348
:101240001A0043600B4B1B781B0413430A4A43608C
:1012500012781206134343607047C04678F2FF0FBE
:1012600079F2FF0F7AF2FF0F7BF2FF0F7CF2FF0F94
:101270007DF2FF0F7EF2FF0F7FF2FF0F014B186828
:10128000C00F704700002240014A024B1A607047AD
:101290006588EDAC3800034070B5154D04002B682F
:1012A000144E9B0F9B07984215D0032233687C2075
:1012B000934333602B689B0F00D09030FFF79AFF69
:1012C00000F0CBF82B68A40F9B009B08A4071C43DD
:1012D0002C6000F0C6F803223368934319002B6892
:1012E0009A0F5342534101330B43336070BDC046E4
:1012F0000C0222401402224010B5040000F0ADF8A8
:101300000549064A0B681440054A134023430B6005
:101310000B6800F0A6F810BD10022240040404007F
:10132000FBFBFBFF042270B5224C2368134213D051
:1013300021490B6813420CD0204B5D6908681540A9
:10134000A84308605969914359619B68002B00D0FC
:1013500098470420FFF7D0FF80232268DB001A4261
:1013600015D015490A681A420DD0144A5569086803
:101370002B40984308605169114B0B405361D3686F
:10138000002B00D098478020C000FFF7B5FF8023D6
:101390002268DB021A420CD0074A12681A4204D0B3
:1013A000064B1B69002B00D098478020C002FFF736
:1013B000A3FF70BD10022240DC0000208C01002041
:1013C000FFFBFFFF034A044B116840020B40184328
:1013D0001060704708030440FFF1FFFF0823044931
:1013E000C0000A689A43D2B2034013430B607047AF
:1013F00000030440024B18680007C00F7047C04646
:1014000004030440034A044B116880010B40184355
:1014100010607047080004403FFEFFFF04230449AA
:1014200080000A689A43D2B2034013430B607047AE
:1014300000000440024B18684007C00F7047C046C8
:1014400004000440000000000230800803D0013096
:101450000238FCD1C046C0467047EFF3108072B628
:10146000704780F310887047084B094A1968136861
:101470000020994208D013680133412B00D10300AA
:101480000449C85C1360C0B27047C046C801002060
:10149000C4010020CD010020044B1868044B1A68D9
:1014A0001B68904200D24130C01A7047C80100202A
:1014B000C40100201F2204490B681340082BFBD0F5
:1014C000024B18607047C046080225404002254084
:1014D00070B504004518AC4204D02078FFF7EAFF4D
:1014E0000134F8E770BD0000134B70B51B68002B8A
:1014F00000D09847114B1B685B071CD520241F2088
:101500000F490B680133412B00D100230D4A1568A8
:101510000D4AAB4203D113680C4B1C7004E01268F7
:101520000B4DD2B2EA540B600A4B1B680342E8D160
:101530000422094B1A6070BD68010020CC0F2540C1
:10154000C8010020C401002040032540CC01002038
:10155000CD01002008032540C00F254010B5FFF73E
:1015600047F810BD10B5FFF751F810BDF8B50400ED
:101570000F0016000120002C28D0002926D00A25B3
:101580005D43FFF789FF002810D0FFF785FF0500B6
:10159000AE20FFF72FFEFFF77FFF8542F5D1390020
:1015A000AF4200D929003180651807E00120013DD4
:1015B000FFF74EFD002DE4D1102007E0AC4204D02F
:1015C000FFF752FF20700134F8E70020F8BD70B536
:1015D00001230C001500002805D0002903D0FFF7D7
:1015E00077FF00232C80180070BD000002B4714604
:1015F00049084900095C49008E4402BC7047C04656
:1016000003B47146490840004900095E49008E4410
:1016100003BC7047002243088B4274D303098B42FA
:101620005FD3030A8B4244D3030B8B4228D3030CB2
:101630008B420DD3FF22090212BA030C8B4202D354
:101640001212090265D0030B8B4219D300E0090A7C
:10165000C30B8B4201D3CB03C01A5241830B8B4285
:1016600001D38B03C01A5241430B8B4201D34B036E
:10167000C01A5241030B8B4201D30B03C01A5241D3
:10168000C30A8B4201D3CB02C01A5241830A8B4258
:1016900001D38B02C01A5241430A8B4201D34B0241
:1016A000C01A5241030A8B4201D30B02C01A5241A5
:1016B000CDD2C3098B4201D3CB01C01A5241830959
:1016C0008B4201D38B01C01A524143098B4201D393
:1016D0004B01C01A524103098B4201D30B01C01ABE
:1016E0005241C3088B4201D3CB00C01A5241830838
:1016F0008B4201D38B00C01A524143088B4201D365
:101700004B00C01A5241411A00D2014652411046C4
:101710007047FFE701B5002000F006F802BDC046A3
:101720000029F7D076E770477047C046014B18682C
:101730007047C046400100200E4B70B500251E00CA
:101740000D4CE41AA410A54204D0AB00F3589847FE
:101750000135F8E700F0D0FC084B00251E00084CCE
:10176000E41AA410A54204D0AB00F3589847013501
:10177000F8E770BD042100000421000004210000EE
:101780000C210000002310B59A4203D0CC5CC45455
:101790000133F9E710BD03008218934202D019709B
:1017A0000133FAE77047000030B59BB00091049117
:1017B00008496D4602910591012182244942E9813F
:1017C000A4006946AC8100F075F80023009A1370FC
:1017D0001BB030BDFFFFFF7F10B513000A000100F2
:1017E00002480068FFF7E0FF10BDC046400100203E
:1017F000F0B58E6885B007000C00039201939E42FD
:1018000043D890238A89DB001A423ED00325096918
:10181000236801985B1A029363695D43EB0F5D19BE
:10182000029B6D1001331B18AB4200D91D005305FC
:1018300010D52900380000F037FB061E14D0029A9C
:101840002169FFF79FFFA289194B134080221343A0
:10185000A38112E02A00380000F086FB061E0CD19E
:101860002169380000F0D4FA0C23402201203B60AB
:10187000A38940421343A38117E0029B2661F61817
:1018800026606561019EED1AA560019BB34200D2FE
:101890001E0032000399206800F0A5FA0020A3681A
:1018A0009B1BA36023689E19266005B0F0BDC0464F
:1018B0007FFBFFFFF0B59FB0029005938B890F006F
:1018C00016001B0610D50B69002B0DD1402100F02E
:1018D000EBFA38603861002804D10C23029A0138F1
:1018E0001360D8E040237B61002306AD6B61203399
:1018F0006B761033AB7634002378002B03D1A31B17
:10190000049312D003E0252BF9D00134F4E7A31B94
:10191000320039000298FFF76BFF431C00D1B4E09E
:101920006A69049B944663446B612378002B00D161
:10193000ABE00122002352426A6002A954325218DD
:1019400001342B60EB60AB601370AB65534E2178B4
:101950000522300000F03CFA002807D00123801B4C
:1019600083402A68013413432B60EFE72B68DA06C3
:1019700004D55322202102A8121811701A0704D589
:1019800053222B2102A81218117022782A2A03D080
:10199000099B00200A210EE0059A111D126805918D
:1019A000002A01DB099204E05242EA60022213435A
:1019B0002B6001340BE02278303A092A04D84B43DB
:1019C00001349B180120F6E7002800D00993237802
:1019D0002E2B1ED163782A2B0AD1059B02341A1DA7
:1019E0001B680592002B01DA01235B42079310E08C
:1019F00000230A201A0001346B602178303909294C
:101A000004D84243013452180123F6E7002B00D0DA
:101A10000792234E21780322300000F0D9F90028E4
:101A200006D04023801B83402A68013413432B6077
:101A3000217806221B48661C297600F0C9F9002887
:101A400012D0194B002B06D10722059B0733934375
:101A50000833059314E005AB00933A00134B2900BB
:101A6000029800E000BF07E005AB00933A000F4B7F
:101A70002900029800F08AF80390039B013304D0F8
:101A80006B69039A9B186B6135E7BB890B985B0602
:101A900001D5012040421FB0F0BDC046C320000068
:101AA000C9200000CD20000000000000F117000058
:101AB000F7B5170001938A680B6900900C009342F8
:101AC00000DA130022003B6043321278002A01D072
:101AD00001333B6023689B0602D53B6802333B60C1
:101AE000062523681D401ED0230043331B785A1E51
:101AF0009341226892061CD53020E11843310870CA
:101B000021005A1C45310978A21843320233117062
:101B10000FE022000123193201990098089EB04776
:101B2000431C0ED00135E3683A689B1A9D42F0DBF6
:101B3000DAE72200019943320098089DA847431C28
:101B400002D10120404220E006232068E1683A6883
:101B500003400025042B03D18D1AEB43DB171D40F6
:101B6000A3682269934201DD9B1AED180027BD424C
:101B70000AD0220001231A3201990098089EB0472A
:101B8000431CDED00137F2E70020FEBDF0B58BB07C
:101B900006920A0043320793059004920A7E0C00D5
:101BA000109B6E2A00D1ABE011D8632A22D009D84D
:101BB000002A00D1B5E0582A00D0C5E045310A70AE
:101BC000814A4FE0642A1DD0692A1BD0BCE0732AE9
:101BD00000D1AAE009D86F2A29D0702A00D0B3E03A
:101BE000202209680A43226037E0752A1FD0782A2C
:101BF00033D0A9E00E001A684236111D196013682F
:101C00003370A4E021681A68080606D4490604D592
:101C1000111D19600023D55E02E0111D19601568C1
:101C2000002D3BDA2D23049A6D42137036E02168B3
:101C30001A68080606D4490604D51568111D1960EE
:101C4000ADB202E0111D196015685F4B227E03934F
:101C500008276F2A1DD00A271BE022007821453271
:101C600011705A4A19680392081D226818600D689D
:101C7000100602D4500600D5ADB2D30702D52023FA
:101C80001A4322601027002D03D1202322689A4393
:101C900022602300002243331A7002E00A274A4BD5
:101CA00003936368A360002B09DB0422216891433E
:101CB0002160002D05D1049E002B11D07BE0002D6A
:101CC00079D0049E28003900FFF72AFD039B013ECE
:101CD0005B5C280033703900FFF79CFC051EF1D1D6
:101CE000082F09D12368DB0706D563682269934270
:101CF00002DC3023013E3370049B9B1B23612BE0ED
:101D000009681A68080607D4490605D5111D196027
:101D10001368A28A1A8004E0111D196013686269B1
:101D20001A600023049E236116E01A68111D1960D1
:101D3000166800216268300000F04AF8002801D0DF
:101D4000801B6060636803E0260042363270012326
:101D500023610023049A1370079B09AA00932100B2
:101D6000069B0598FFF7A4FE431C02D101204042C8
:101D700027E02369320006990598079DA847431C70
:101D8000F4D0236800259B070FD4099BE068984294
:101D900017DA180015E02200012319320699059878
:101DA000079EB047431CE1D00135E368099A9B1AAE
:101DB0009D42F0DBE9E72600039B42361B78337037
:101DC0008EE70BB0F0BDC046D4200000E520000037
:101DD000C9B28218904204D003788B4202D00130FD
:101DE000F8E70020704710B5884202D98B18984256
:101DF00001D3002305E09B1A013A08D3995C815472
:101E0000FAE7934203D0CC5CC4540133F9E710BD28
:101E100070B50500002944D00C1F2368002B00DAA0
:101E2000E418280000F0D8F81E4A13681100002BAF
:101E300002D16360146031E0A3420DD92268A0187A
:101E4000834203D118685B688218226063600C606B
:101E500024E0A24203D813005A68002AF9D11E6870
:101E60009819A0420BD12168711858181960824244
:101E700014D110685268411819605A600EE0A042EF
:101E800002D90C232B6009E021686018824203D13B
:101E9000106852684118216062605C60280000F0A0
:101EA0009CF870BDA8010020032370B5CD1C9D4394
:101EB000083506000C2D01D20C2501E0002D01DBB8
:101EC000A94202D90C23336048E0300000F084F8C6
:101ED000234B1C681A002100002913D00B685B1BE0
:101EE0000DD40B2B02D90B60CC181EE08C4202D112
:101EF000636813601AE04B6863600C0016E00C0026
:101F00004968E9E7174C2368002B03D1300000F043
:101F100051F820602900300000F04CF8431C18D024
:101F20000323C41C9C43A0420DD12560300000F067
:101F300054F8200007220B30231D9043C31A0ED003
:101F40005A42E2500BE0211A300000F033F8431CF3
:101F5000EBD10C233000336000F03FF8002070BD5F
:101F6000A8010020A4010020F8B506000C0015000F
:101F7000002904D11100FFF797FF040018E0002AA0
:101F800003D1FFF745FF2C0012E000F027F885424F
:101F90000ED929003000FFF787FF071E07D0210068
:101FA0002A00FFF7EFFB21003000FFF731FF3C0074
:101FB0002000F8BD002370B5064C05000800236022
:101FC000FEF7A4FA431C03D12368002B00D02B603A
:101FD00070BDC04610020020704770470B1F1A6882
:101FE000101F002A04DA891804390B68D018043845
:101FF00070470000002200002A00000000000000DE
:10200000F7FF7018B2C0300154144A1378184B10FF
:102010003C57F905F00038200020D80E2B053B6115
:102020000023E023FDC2F7FF7018B2C03001541541
:102030004A1D78184B1AF917F0000020D80C2D090A
:10204000626F6F746C6F6164657220737461727417
:102050000D0A0054686520626F6172642069732004
:102060006E6F74206163746976617465642C20708E
:102070006C6561736520616374697661746520695C
:102080007420776974682074686520616374697668
:10209000652E63796163640D0A000000B5116A253D
:1020A000003C0101D91F5DC38D2AEEDBC9B9AA9B93
:1020B0008E82766B60564D443B332C241D17100ADC
:1020C000044300232D302B2000686C4C00656667AC
:1020D000454647003031323334353637383941429E
:1020E0004344454600303132333435363738396170
:1020F0006263646566000000F8B5C046F8BC08BCC1
:102100009E4670472901000089050000F8B5C046C9
:10211000F8BC08BC9E467047010100003021000059
:10212000B800002090000000D00000000000000077
:102130000000000018020020F41F0000F81F00003B
:10214000010000000000E02EC05D0000180000004B
:1021500000366E01040404000000000000000000CE
:10216000000000000000000000000000000000006F
:102170000000000000000000C1200000000000007E
:10218000000000000000000000000000000000004F
:10219000000000000000000000000000000000003F
:1021A000000000000000000000000000000000002F
:1021B0000000000000000000E0000020000000001F
:1021C000000000000000000000000000000000000F
:1021D00000000000000000000000000000000000FF
:1021E00000000000000000000000000000000000EF
:1021F00000000000000000000000000000000000DF
:102200000040002011220000C3B80000C3B8000045
:1022100080B5044B00AF83F3088809F06BFD09F02B
:1022200075FBC0460040002070B572B60024414BDB
:10223000414A1C60414BC7211A60414B414A1C6016
:10224000414B49001C60414B20251C600523136055
:102250003F4A11603F4A136012223F4B1A6009F057
:1022600037FD30200AF066F8E8223C4B52011A6034
:102270003B493C4B3C481960C021890001603B4808
:1022800018603B4801603B493B4819603B490A6084
:102290003B491960F821490101603A4818603A4801
:1022A00004603A4818603A4802603A4A0D201A60C1
:1022B000394A1160394A3A491A604522394B1D6042
:1022C000394B1A60394B033A1A60394B013A1A609C
:1022D000384B06321A60384B013A1A60374B033AD2
:1022E0001A60374B01321A60364B043A1A6009F013
:1022F0005DFF0D2009F086FF8020334BC0051C6078
:1023000009F000FD0322314B01201A608022304B7E
:1023100012061A6008222F4B1A602F4B1D6005F021
:102320001BFA62B60AF0AAF82C4904200AF0CEF88B
:1023300070BDC04600030240FF0F000000040240D1
:102340000803044000040440180304400003044050
:1023500008040440180404403000104014030140F5
:1023600045FF0080000001400803014042FF00805B
:102370000403014041FF0080100301400C030140B1
:1023800043FF008044FF00800003014040FF0080C5
:102390001803014046FF00801C03014047FF0080F6
:1023A000FDBF00002800034048010140300101400A
:1023B0002C010140100101400C01014008010140C5
:1023C00004010140000101400C0222403000304075
:1023D00000003A4000033A40000E3F4049770000B9
:1023E00010B5064C2378002B07D1054B002B02D0EB
:1023F000044800E000BF0123237010BDD00100207D
:1024000000000000DC170100044B10B5002B03D0C6
:102410000349044800E000BF10BDC04600000000B2
:10242000D4010020DC170100704700207047000035
:10243000030070B540331B7804000E000C4D002BD8
:1024400005D0C36B826B416B280007F09BF93034D9
:102450002800217807F091FA2800802107F016F96A
:102460003100280007F012F9280007F08FFA70BD3C
:10247000EC17002010B5037C0400052B00D188E088
:102480000368AE219B6998472368D52120009B698A
:1024900098472368F02120009B6998472368A8216A
:1024A00020009B699847A18A2368013920009B6915
:1024B000C9B298472368D32120009B6998472368B5
:1024C000002120009B6998472368402120009B69D8
:1024D000984723688D2120009B6998472368142121
:1024E00020009B6998472368202120009B6998471A
:1024F0002368002120009B6998472368A1212000C0
:102500009B6998472368C82120009B6998472368E6
:10251000DA219B6920009847227C2368002A39D160
:1025200012219B6920009847236881219B69200024
:102530009847227C2368002A31D1CF219B69200053
:1025400098472368D92120009B6998472368F12187
:1025500020009B6998472368DB2120009B699847EE
:102560002368402120009B6998472368A42120000C
:102570009B6998472368A62120009B699847236898
:102580002E2120009B6998472368AF2120009B697A
:10259000984710BD012AC7D102219B69C2E7012AD1
:1025A000CFD18F219B69CAE70121034A08405368B4
:1025B0005B000343536070471801002010B5024BC5
:1025C00000205B6B984710BD8050010010B5FFF7ED
:1025D000F5FF10BD13B50021054C0B000A002000CB
:1025E0000191009105F067F9200005F024F913BD71
:1025F000E009002013B50021054C60230A002000EB
:102600000191009105F057F9200005F014F913BD70
:10261000E009002010B534300EC8024807F0B2F8C7
:10262000012010BDEC17002030B5154B002499791E
:1026300014238BB00893133B03930293114B890629
:102640000093114B2000DD69104A2300891607947E
:102650000694059404940194A8470D4B09211A008F
:10266000A43211701A00373175327A33094811706B
:102670001C7008F049FD084808F0B0FA0BB030BDF6
:10268000F4010020A08601008050010050C300002A
:10269000441A0020B41A0020413B010010B5040088
:1026A000024B036005F036FD200010BD001B010049
:1026B00010B50400FFF7F2FF200044210AF07FFE6E
:1026C000200010BD10B50400007E03280DD823683B
:1026D0009B690BF045FA020B0D14A12120009847CD
:1026E000C82123689B692000984710BDA021F5E709
:1026F000A021200098472368C0219B69F3E7A1210E
:10270000F7E7C27803000020472A07D11A79532A35
:1027100004D15879563843425841C0B270477F239C
:102720009C461940783B5A43D2B2F0B51600D710F8
:10273000C5192C791E401A4205D1230062469343E5
:102740000B432B71F0BD63B2012E02D1334049001F
:10275000F6E7FF22B24093430A00B240012413433C
:102760002B71731EDBB264429C400137C0190379A0
:102770001C4008239B1BDBB219410B002343037150
:10278000E0E70000F0B5060089B0342957D12D4AA2
:1027900003AC137801331370FFF72CFF200008F00F
:1027A00071FDF122284B92009D583C225543ED18B3
:1027B000264B64791B6864B22B6004F011FD244B36
:1027C0001B68C01A234BA8801A7880235B421343EE
:1027D000AB7163005B422A00EB712235019530003A
:1027E0000F25083203781C491B4ECB5C4178023020
:1027F000765C1900294009010F003100AB432940E4
:1028000036111E430F43019B177096760132934297
:10281000E8D1F1210C4A8900535801331D40F023BF
:102820009B00D3589D4200D055500C480368634329
:102830005C40E443046004F0CFF9FFF7CBFE09B03D
:10284000F0BDC0469C070020F4090020540700207A
:10285000EC01002000030020313A010018010020A3
:10286000F7B500AF8EB06D466B460B4C02000DA85D
:10287000117801320E11A65D1E700F263140615C89
:10288000597002339842F3D1044B280034219B6ADB
:102890009847BD460020FEBD313B0100805001003D
:1028A0000123342230B500248BB0134909930393DC
:1028B0000193124B0492303220009D690292230052
:1028C00000910F4A0894079406940594A8470D4B6D
:1028D00009211A00A43211701A002F3175327A338F
:1028E000094811701C7008F00FFC0848013008F00E
:1028F00075F90BB030BDC04690D003008050010088
:10290000A0860100441A0020B41A0020413B0100B7
:10291000F0B5050092352E78B3071CD40400783446
:102920002378002B0CD1242915D1012222703243A7
:1029300001702A70020093321370793003700AE03C
:102940000D2901D00A2907D1022232432A70772BA0
:1029500001D80022C254F0BD202903D800232B70D7
:102960002370EAE72C290AD1060079363278172A33
:1029700005D8571C821837707A325E1C1670772B78
:10298000ECD85A1C2270C15493300378594001701E
:10299000E1E72F280AD9392802D8303840B27047E9
:1029A0000300413B052B01D83738F7E701204042AF
:1029B000F5E700000F23044A03400011D35C105CCC
:1029C0001818C0B27047C046E817010070B505007E
:1029D000C0B2FFF7EFFF0400280AFFF7EBFF201853
:1029E000C0B270BD70B5050080B2FFF7EFFF040004
:1029F000280CFFF7EBFF2018C0B270BD70B505685A
:102A0000040028010009FFF7EDFFC30703D5802369
:102A10001B056B40236070BD10B504000821043015
:102A200004F098F8200008210C3004F093F810BD51
:102A30000170022906D1134B4360134B836041237D
:102A400043707047032905D1104B43600E4B8360E0
:102A50001823F5E70E4B042904D10E4A8360426027
:102A60000123EDE7052901D10B4AF7E7062904D137
:102A70000A4A836042600823E2E7094A83604260B1
:102A80000223DDE7C07AC635801A0600404FA8361B
:102A9000400D0300D0B3CF33401A9C36801BD219AF
:102AA00040AEBF33C303181A0138030B43409800EC
:102AB000C0180309434002485843030C584070476C
:102AC00009080000F7B501934678050017000020BB
:102AD000012E21D901982B785040012B1CD94C0094
:102AE0001019FFF7DFFF31000BF0D4F8019BC8B2DB
:102AF0000500002B10D0002F08D02000FFF7D2FFD8
:102B000031000BF0C7F8C8B2854205D10130C0B220
:102B1000864201D8013DE8B2FEBD00000022182324
:102B2000F0B5314D87B00490160001202C005943B8
:102B30002E4B0092C9184B1C01930B780293029BF9
:102B4000D1B28B421CD9019B049F9B5CA133FF3304
:102B50005B00DB5F002B00DD06434000002B01DA49
:102B60005B421BB29C4206DC2F1C9D4200DD1F1CF9
:102B7000009923003CB2250001321C000091DEE7E1
:102B80003000FFF72FFF0122D02310405B0003909D
:102B90009C460020029BC7B29F421DD2019B009918
:102BA0001B5C05932B008F4200D023000399002962
:102BB00001D05B421BB20599049F49007918674612
:102BC0009BB2CF5B324201D15B429BB2FB1867469E
:102BD0005200CB530130DDE7039B002B01D0644250
:102BE00024B2200007B0F0BDFF7F00004B3B010086
:102BF000C278030000207F2A06D81A797F2A03D8DA
:102C00005879C043C0B2C009704702780300002061
:102C10007F2A06D85A787F2A03D89878C043C0B252
:102C2000C0097047032102004156042089B20B01FC
:102C30005B1A10569B009BB21B181801C01A052383
:102C4000D3568000C018704770B500256E234557D5
:102C5000FF336B4399B2002D04DD4B1C691E8910B4
:102C6000591889B201261C2302248657114A73433E
:102C700004579219013AE3181478E418A4B2230017
:102C80001D3B9BB2AA0704D1022E02DD23001C3B90
:102C90009BB2094A5B189BB29B185C00E318DC01ED
:102CA000DB00E41AFFF7BEFFA301A4001B1B9B007F
:102CB000181870BD2C1B0100CD2A00000323F7B5A6
:102CC000C356040008000F00009303F0F6FD061E33
:102CD000E07003DA01277F423800FEBDBD783A3D3F
:102CE0006B425D4104237D19E356023528000193B0
:102CF00003F0E3FD20710028ECDB019B00279842E4
:102D000004D1009BF61A77427741FFB2AB780526D3
:102D10003A3B5A425341EB189D1C2800A65703F03A
:102D2000CCFD60710028D5DBB04200D00027AB7825
:102D30007FB22E2BD0D10622A35E0193EB1C00257F
:102D40002E000093009B985D03F098FD002806DBA1
:102D50000A235D4301362D18ADB276B2F2E7002E9C
:102D6000B8DD6420012E02D0022E09D10A2045438D
:102D7000E5800622A35E019A9342ADD00027ABE71F
:102D8000032EF5D0042EA5D10A2128000AF0FCFE5E
:102D9000E080EEE710B50400FFF72AFF002812D00C
:102DA0002000FFF732FF00280DD00A23E356181E3B
:102DB00009D00B23E3560020012B04D00C23E3564B
:102DC000D817C01AC00F10BDC36910B5094A040056
:102DD000D917C06900230BF0E5F880220023120602
:102DE000801859418023DB01C81800B203F0A8FD08
:102DF000E08410BD55E21300F7B505001000140083
:102E0000019103F05AFD071E02DA0120404218E04A
:102E1000A01C03F052FD061EF7DB23792E2BF4D104
:102E2000601D03F07AFD031EEFDB3C20784386191A
:102E300007487043C018019B532B03D14042E861FF
:102E40000020FEBDE86101984E38411E8841DDE753
:102E500010270000F7B5050010001400019103F0E1
:102E600040FD071E02DA0120404218E0E01C03F09A
:102E700024FD061EF7DB63792E2BF4D1A01D03F091
:102E80004CFD031EEFDB3C20784386190748704356
:102E9000C018019B572B03D1404228620020FEBD81
:102EA000286201984538411E8841DDE7102700005F
:102EB00010B5040003F034FFE0230002DB04000A35
:102EC00018430E4A636820601A40A7235B0413432B
:102ED00063600B4BFF22A36080235B04E360094B1C
:102EE00023612300FC339A6000220534E83BFF3461
:102EF0001A701033A342FBD110BDC046000080F809
:102F000000C201FF90016467F0B50500C07885B08C
:102F10008006000F0C003A2603F0BAFB66702070A2
:102F2000E8788007800F03F0B3FBE670A0702B6891
:102F300006221902090A201D03F086FC060003F090
:102F4000EFFE2F23771D0436FFB2F6B2A355039090
:102F5000E01903F06DFC3818C6B20399A01903F00C
:102F600067FC2F233618F6B2A355771C0026A979E3
:102F7000FFB2890633000122E0198916009603F09A
:102F800021FC3F18FFB2E019194903F098FB2023F8
:102F90003818C0B22354A988471CFFB20905022281
:102FA0001F3BE0190915009603F00CFC3F18FFB217
:102FB000E019104903F083FB3F18FFB2E0190E49F6
:102FC00003F07DFBA9683F18FFB20902330001221C
:102FD000E019090A03F0BAFB3F18FFB20749E019EC
:102FE00003F06DFB3818C0B2265405B0F0BDC046E2
:102FF000F8170100FC170100001801000618010075
:10300000F7B50D0006003249280003F058FB040014
:1030100003F086FE0700281903F00AFC2418E4B226
:103020002819390003F004FC2418E4B228192949AE
:1030300003F045FB336824181902E4B2062228196C
:10304000090A03F001FC2418E4B22819224903F00C
:1030500036FBF3782018C0B29B07441C9B0F30331B
:10306000E4B22B541D49281903F029FB2018C7B2DC
:10307000F0787C1C8006000F03F00AFBEF19E4B225
:1030800038701749281903F01AFBF3792018C0B2D9
:103090005B07441C5B0F3033E4B22B5411492819F1
:1030A00003F00DFBB17900262418E4B28906330041
:1030B000281901220096891603F084FB2418E4B233
:1030C0002800210003F0C4FC2018C0B22E54FEBD1D
:1030D0000B18010019180100251801003018010013
:1030E0003D1801004818010070B50D0006001E498A
:1030F000280003F0E4FA310004001431281803F02A
:10310000DEFA2418E4B22819184903F0D8FA31007D
:103110002418E4B22819F43103F0D1FA2418E4B2E7
:103120002819134903F0CBFA31002418E4B2281906
:10313000643103F0C4FA2418E4B228190D4903F0ED
:10314000BEFA31002418E4B22819A43103F0B7FA0A
:103150002418E4B22800210003F07AFC0023201890
:10316000C0B22B5470BDC046521801006018010057
:10317000671801006D18010070B50D0006001E49AA
:10318000280003F09CFA310004002431281803F0D1
:1031900096FA2418E4B22819184903F090FA31007D
:1031A0002418E4B22819343103F089FA2418E4B25F
:1031B0002819134903F083FA31002418E4B22819BE
:1031C000443103F07CFA2418E4B228190D4903F0C5
:1031D00076FA31002418E4B22819543103F06FFA5A
:1031E0002418E4B22800210003F032FC0023201848
:1031F000C0B22B5470BDC046741801008218010083
:103200008A1801009118010070B50D0006001749D9
:10321000280003F054FA310004008431281803F028
:103220004EFA2418E4B22819114903F048FA310083
:103230002418E4B22819743103F041FA2418E4B2D6
:1032400028190C4903F03BFA31002418E4B228197C
:10325000943103F034FA2418E4B22800210003F07A
:10326000F7FB00232018C0B22B5470BD9618010044
:10327000A4180100A91801000378013B1F2B01D8F5
:103280000130F9E770470000F8B50D001E0006ABED
:103290001F78110000230E22280003F024FA0B49A6
:1032A0000400281803F00BFA2418E4B23A003100A5
:1032B000281903F0C9FA2418E4B22819044903F0C4
:1032C000FEF900232018C0B22B54F8BDB01801003D
:1032D000B618010070B50D001E00110000230E226B
:1032E000280003F000FA0C490400281803F0E7F95D
:1032F0002418E4B2310028190023012203F026FA31
:103300002418E4B22819054903F0D9F9002320183C
:10331000C0B22B5470BDC046B8180100B6180100E9
:10332000F7B50D001F00110000230E22280003F046
:10333000DAF90C490400281803F0C1F90026241812
:10334000E4B23300390028190122009603F03AFA5A
:103350002418E4B22819044903F0B1F92018C0B2C6
:103360002E54FEBDB8180100B6180100F7B50D00C7
:103370001F00110000230E22280003F0B4F90C49AD
:103380000400281803F09BF900262418E4B2390041
:10339000281901230222009603F014FA2418E4B23B
:1033A0002819044903F08BF92018C0B22E54FEBD31
:1033B000B8180100B61801000622F0B50C0005008F
:1033C0000126036899B01B021B0A009204A9C24A95
:1033D000FFF75AFFC14904A80DF0EAFD200004A937
:1033E00003F05DF9EB78BE4A9B079B0F009604A99A
:1033F0002800FFF749FFBB4904A80DF0D9FD2000C4
:1034000004A903F04CF9EB78B74A9B061B0F009612
:1034100004A92800FFF738FFB44904A80DF0C8FD3F
:10342000200004A903F03BF9AB68B14A1B021B0A58
:1034300004A92800FFF74EFFAE4904A80DF0B8FD1F
:10344000200004A903F02BF9EB7AAB4A009604A9FB
:103450002800FFF719FFA94E04A831000DF0A8FDC0
:10346000200004A903F01BF9AB79A54A9B069B1623
:1034700004A92800FFF754FFA24904A80DF098FD05
:10348000200004A903F00BF9AB799F4A5B06DB0F20
:1034900004A92800FFF71EFF9C4904A80DF088FD31
:1034A000200004A903F0FBF8EB79994A5B075B0F56
:1034B00004A92800FFF70EFF964904A80DF078FD37
:1034C000200004A903F0EBF8AB88934A1B051B15F9
:1034D00004A92800FFF74AFF904904A80DF068FDF1
:1034E000200004A903F0DBF80523EB568C4A1B11DE
:1034F00004A92800FFF714FF8A4904A80DF058FD1D
:10350000200004A903F0CBF80C23EA5E0A23032170
:103510005A43D3170B409B189B10834A04A92800D9
:10352000FFF724FF814904A80DF042FD200004A903
:1035300003F0B5F80F230227EB567D4A5B1104A96F
:103540002800FFF7EDFE7B4904A80DF031FD2000B7
:1035500004A903F0A4F81022AB5E04A9764A28005F
:10356000FFF704FF754904A80DF022FD200004A90F
:1035700003F095F8AB7B724A1B07DB0F04A9280008
:10358000FFF7A8FE6F4904A80DF012FD200004A962
:1035900003F085F8AB7B6C4A5B0904A92800FFF7B0
:1035A00099FE6A4904A80DF003FD200004A903F068
:1035B00076F8EB7B664ADB065B0F04A92800FFF771
:1035C00089FE644904A80DF0F3FC200004A903F06F
:1035D00066F8EB7B604A9B079B0F009704A92800C5
:1035E000FFF752FE5D4904A80DF0E2FC200004A99B
:1035F00003F055F8EB7C5A4A009704A92800FFF71E
:1036000043FE310004A80DF0D3FC200004A903F010
:1036100046F82B000422FC339B6804A95B015B097C
:10362000009228004F4AFFF72FFE310004A80DF04A
:10363000BFFC200004A903F032F82B002E00FF335A
:103640001B7A494ADB0804A92800FFF743FE4749D3
:1036500004A80DF0ADFC200004A903F020F8AB7C19
:10366000434A04A92800FFF735FE424904A80DF09B
:103670009FFC200004A903F012F86B1DFF333E4F9E
:10368000143603930E22002302CF04A803F02BF874
:1036900004AB05003949181803F011F82D18EDB2E4
:1036A00004AB002231005819102303F01CF82D1828
:1036B00004ABEDB25D19002331492B7004A80DF065
:1036C00077FC200004A902F0EAFF039B10369E421B
:1036D000D8D119B0F0BDC046BC180100C418010013
:1036E000D1180100DA180100E7180100F0180100F4
:1036F000FD18010005190100121901001A19010035
:10370000271901002F1901003C190100411901007E
:103710004E19010057190100641901006D190100CB
:103720007A19010083190100901901009A1901000A
:10373000A7190100B0190100CD190100BD19010040
:10374000CA190100D8190100E5190100ED1901009D
:10375000FA190100021A01000F1A0100171A0100DC
:10376000241A0100291A0100321A01003E1A010030
:103770004B1A0100541A0100D8000020B8180100AB
:10378000611A010070B5084E084C31002000FFF7A7
:10379000BBFB074D3100280002F081FF290020000B
:1037A000FFF70AFE70BDC046E0080020F4010020CB
:1037B000B546000080225201904208D3C0239B01ED
:1037C000984205D20C4BC0184010104380B270478D
:1037D000E022D201904206D2084BC018802380100C
:1037E0009B011843F2E7064A904203D8054A801825
:1037F000C010F6E70448EAE700F0FFFF00D0FFFF43
:10380000FFEF00000090FFFFFF3F000003130005E3
:10381000000D002B05D0DAB2012B03D1064B40007E
:10382000C0187047022A04D1044B8000C01880B22F
:10383000F7E7034BC000F9E7011000000230000079
:10384000047000000F2806D92F2805D8102310383F
:1038500040101843C0B270476F2803D83038202377
:103860008010F6E7EF2803D870383023C010F0E757
:103870003F20F0E7F7B5002405000E000F0004809C
:10388000A1423AD00B781F000193FD232B3F1F402C
:103890007B425F417FB2F319185D02F0EFFFE4B2A3
:1038A0002B88002806DB0A22534301341B182B8087
:1038B00064B2F0E70A225343E719FCB22B807FB2CF
:1038C000F35D2E2B13D1671C7FB2F05D02F0D6FFA3
:1038D00000280CDB2B8802341818288067B2F05DB2
:1038E00002F0CCFF042802DD2B8801332B80019BE2
:1038F0002D2B02D12B885B422B803800FEBD37B5C3
:103900006B469C1D05002000FFF7B4FF00280DDD6D
:103910000022A35E092B05DC0A23238000202388D4
:103920002B703EBDFF2BF9DDFF23F6E7012040425F
:10393000F7E70022F0B506000F000C0085B002602A
:10394000914246D00B78FD2102932B3B0B4059420C
:103950004B4159B2FD18FB5C0091302B29D16B789B
:103960001400782B26D10B00023301936B4615000F
:103970001B795BB20093EBB20393019B6CB2FB1813
:10398000585D02F084FF031E21DB3268039C1001A6
:10399000C01801340135306064B2082DEBD1009BB2
:1039A0001C19029B64B22D2B13D133685B42336028
:1039B0000FE014000A27285D02F060FF031E06DBFB
:1039C000306801347843C018306064B2F3E7002CEB
:1039D000E5DC200005B0F0BDF0B5060089B00500BB
:1039E000059300230F001400223600903C35049309
:1039F00007963078FEF7DEFF049B0136C018C3B28D
:103A00000493AE42F5D1009B0122083306930023B4
:103A100094461E0019000193012A04D10698465CC1
:103A20000798405C0190019D00202A4204D180301B
:103A3000324201D10138FF38D025AD006519E0527E
:103A4000E852200002950025A1305200FF30D2B28A
:103A50000390C552AA4202D162460131C9B2D020B8
:103A6000023340008342D7D1002206930192059B86
:103A7000002B27D0D02200219200039BA21819808E
:103A800002339A42FBD100252E0031002000FFF7BF
:103A900045F8002801DC0135EDB20136F6B2302ED2
:103AA000F3D1002D5ED00023039AD25EE15A52106A
:103AB00052180299CA52069A02339342F4D10195E0
:103AC000002D51D19C23DB000021E41801230800C4
:103AD0009C46029D0022AE5E002E00DD18435B0076
:103AE000DBB2002B04D17854180063464E1CF1B2AF
:103AF0000235AC42EED1012B00D078543E000025B7
:103B0000009B009C223308340293337820780134E0
:103B10005840637E01369843FEF74CFF029B4519DF
:103B2000EDB2A342F1D1049B5D19EDB22A1C0F2D19
:103B300000D90F220F213B7F12010B4013433B772B
:103B4000009B07399B7901987B77009BDB79BB77DA
:103B5000019B5A425341DA003B7F8B4313433B772F
:103B600009B0F0BD0195ADE7059B013BDBB20593C4
:103B70007DE7F8B5002305000E000C0003609942B4
:103B80000DD01C000A27305D02F078FE031E06DB14
:103B9000286801347843C018286064B2F3E7200035
:103BA000F8BD0023F7B505000E000C000360994234
:103BB0002FD00B7819000193FD232B3919404B426C
:103BC00059414CB27118FFF7D4FF0A232A68241810
:103BD0005343E7B22B6064B2335D2E2B13D17C1CB0
:103BE00064B2305D02F04AFE00280CDB2B6802371D
:103BF000181828607CB2305D02F040FE042802DD17
:103C00002B6801332B60019B2D2B02D12B685B426B
:103C10002B602000FEBD70B50E00793633780500AC
:103C20000C000D2B00D884E00B007A331978611852
:103C3000FFF744F80122C3171B1A287ADB0F9043C1
:103C4000184328723378052B00D875E023007F33A2
:103C50001B78E05C02F012FE002864DBA872337867
:103C60000020062B03D9230080331878201802F097
:103C700024FE287300280BDA3378062B5CD9230046
:103C800080331B78E05C02F0F9FD00284EDB2873DE
:103C900033780021072B03D9230081331978611869
:103CA00028000E30FFF72BFE3378022B44D9230077
:103CB0007B331A7801331B782800E15CA218FFF7E8
:103CC0009BF83378042B37D923007D331A780133DE
:103CD0001B782800E15CA218FFF7BCF83378092BA9
:103CE0002AD923008233197801331B786118E35CE9
:103CF0004D2B03D128001830FFF753FF33780B2BDF
:103D00001AD923008433197801331B786118E35CD6
:103D10004D2B03D128002430FFF7ACFD2800FFF71E
:103D200053F8012070BD0023AB7298E700232B737A
:103D3000AEE702204042F5E700231B78FFDE0000DB
:103D4000F7B50F0079373B7805000C000A2B00D837
:103D500078E00B007A33197800266118FEF7AEFF81
:103D60000122C3171B1A287ADB0F904318432872CD
:103D70003B78082B03D9230082331E78A619300024
:103D800002F09BFDA870002844DA80235B002B80A2
:103D9000FF3BAB703B78032B57D923007C331A7859
:103DA00001331B782800E15CA218FFF725F83B7867
:103DB000052B4AD923007E331A7801331B7828005B
:103DC000E15CA218FFF746F83B780021062B03D9E7
:103DD000230080331978611801A8FFF7E2FE00285C
:103DE00007DD019A1A4B5343802292009B189B12C5
:103DF0002B823B780021072B03D9230081331978CC
:103E0000611828001230FFF735FD2800FEF7DCFFAF
:103E10000120FEBDB3782F3B5A425341F3189E1C3C
:103E2000300002F04AFD68700028AEDBB0782F3811
:103E3000434258413018023002F03FFD28700028FC
:103E4000A8DAA2E702204042E3E700231B78FFDE66
:103E50000F020000F7B54B7806000C00472B5CD131
:103E6000CB78472B00D09AE00B79472B07D14A79C2
:103E7000412A04D1FFF7CFFE05002800FEBD002532
:103E8000532BFAD16379412BF7D1270079373B784F
:103E9000102B02D801256D42EFE723007B331B78FE
:103EA000E05C02F0EBFC002831DBF0723B78002193
:103EB0000E2B03D923008833197861186B469D1D9A
:103EC0002800FFF7D7FC002807DD0022AB5E092B96
:103ED0001FDC0A232B802B8873733B7800210F2B68
:103EE00003D9230089331978611830000E30FFF7A9
:103EF00006FD3B780021102B03D923008A33197863
:103F0000611830000F30FFF7FAFC0125B5E7F572B4
:103F1000CCE7FF2BDFDDFF23DCE7502B38D18B789C
:103F2000472B35D1CB78522B32D10B794D2B2FD15A
:103F30004B795A2B2CD10D0079352B78022B29D9AE
:103F40000B007A3319782C306118FFF72AFE00280D
:103F5000A0DD2B78012B1FD923000222317A7B337D
:103F60001B780A43E35C32720022B262328620324E
:103F7000012593434D2B00D17FE7462B8AD1F26A6E
:103F8000F2335343802292009B189B12F36274E732
:103F9000002572E702257EE700231B78FFDE00255F
:103FA000522B00D069E7237900254D2B00D064E720
:103FB0006379432B00D060E721003000FFF7C0FE9B
:103FC00045B25AE7F0B5002506000F000C0085B099
:103FD0000560A9423AD0FD220B7802932B3B134097
:103FE0005A4253415AB2C918FB5C0092302B27D178
:103FF0004B78782B24D11300023301936B461B7945
:104000005BB20093EBB20393019B6CB2FB18585D5B
:1040100002F03DFC031E17DB3268039C1001C01840
:1040200001340135306064B2082DEBD1009B1C19BE
:10403000029B64B22D2B09D133685B42336005E0EB
:104040003000FFF796FD0400002CEFDC200005B0E7
:10405000F0BD0000F0B50E000400BD49300085B091
:1040600015000CF0C0FF071E11D10390290003A812
:10407000FFF75FFC3E0000286BDD039B1A022368FC
:10408000120A1B0E1B0613432360013661E0300049
:10409000B0490CF0A8FF071E0FD10390290003A818
:1040A000FFF747FC3E00002853DD0321039AE37825
:1040B0000A408B431343E370E7E73000A6490CF056
:1040C00092FF071E0ED10390290003A8FFF731FCD1
:1040D0003E0000283DDD0F23039A3C2113409A0047
:1040E000E378E6E730009D490CF07DFF071E10D114
:1040F0000390290003A8FFF71CFC3E00002828DDE0
:10410000039B1A02A368120A1B0E1B061343A3602B
:10411000BBE7300092490CF066FF071E0AD10390FE
:10412000290003A8FFF705FC3E00002811DD039BD2
:10413000E372AAE730008B490CF055FF071E14D13B
:104140000123290003A80393FFF73CFF002803DCA9
:104150003E00300005B0F0BD039B40215A1E934144
:104160009A01A3798B431343A37130007E490CF06D
:104170003AFF071E1BD10390290003A8FFF722FF77
:104180003E000028E5DD039B1A0020320BDA2023D5
:104190005B4203933F21039AA3790A408B43134365
:1041A000A3710126D5E71F2BF4DD1F23F1E73000B3
:1041B0006E490CF018FF071E0FD10390290003A8C9
:1041C000FFF7B7FB3E000028C3DD039BFF2B01D99F
:1041D000FF230393039BA374E3E7300064490CF0CF
:1041E00002FF071E14D10390290003A8FFF7A1FBCB
:1041F0003E000028ADDD039B052B01D90523039369
:104200000721039AE3790A408B431343E371C8E71C
:10421000300058490CF0E7FE071E11D10390290029
:1042200003A8FFF7BEFC3E00002800DC91E7039BDB
:104230001A05A388120D1B0B1B031343A38024E74D
:1042400030004D490CF0CFFE071E0FD1039029001E
:1042500003A8FFF7A6FC3E00002800DC79E7039BDB
:104260000A21980009F01AFDA0810EE730004349A9
:104270000CF0B9FE071E10D10390290003A8FFF728
:10428000A1FE3E00002800DC63E71F21039B5A01CA
:10429000E37B0B401343E373F7E6300038490CF03F
:1042A000A2FE002808D1200029001030FFF7E2FA12
:1042B000461E0643F60F4CE7300032490CF093FEE1
:1042C000071E12D10390290003A8FFF77BFE3E00D2
:1042D000002800DC3DE7039B08215A1E9341DA00C9
:1042E000A37B8B431343A373CFE6300026490CF026
:1042F0007AFE071E0ED10390290003A8FFF762FE85
:104300003E00002800DC24E71F21039B5A01A37B09
:104310000B40E7E730001D490CF065FE002837D15F
:104320000027290003A80397FFF74CFE3E00B84280
:1043300000DC0EE7039BBB4200DA039707231C2136
:10434000039A13409A00E37B8B431343E37328E7FC
:10435000BC180100D1180100E7180100FD18010088
:10436000121901003C190100271901004B1A010024
:104370004E1901006419010090190100A7190100EC
:10438000CD190100CA190100E5190100FA1901004F
:10439000300063490CF027FE071E0BD10390290063
:1043A00003A8FFF70FFE3E00002800DCD1E6039BC8
:1043B000E3746AE630005B490CF015FE071E10D16D
:1043C0000390290003A8FFF7FDFD3E00002800DC54
:1043D000BFE6039BFC345A01A3685209DB0EDB06DF
:1043E00094E6300050490CF0FEFD071E11D10390F9
:1043F000290003A8FFF7E6FD3E00002800DCA8E640
:104400000721039BFF34DA00237A0B401343237206
:104410003BE6300045490CF0E6FD00270090B8422D
:104420000DD10390290003A8FFF7CCFD009EB842F0
:1044300000DC8EE60321039AE37B0A4084E73C4AD2
:10444000BB003000D1580CF0CEFD0090002833D1D5
:1044500014343F01E31928000193FEF70DFF060015
:10446000009C3778E3B20093002F0FD03B00303B25
:10447000092B17D93B0020229343413B192B11D91B
:1044800039002C480CF0A1FD00280BD10022019B23
:104490001C19009B22700133DBB2009301340F2BF7
:1044A000F7D905E0019B01361F550134102CD8D1F6
:1044B000761B76B2701EFCE601370F2FBFD130009D
:1044C0001D490CF090FD071E11D10390290003A88F
:1044D000FFF778FD3E00002800DC3AE6039901363C
:1044E0004B1E9941A37BB3430B43A37331E63000CA
:1044F00012490CF078FD0026B04200D029E62900D0
:1045000003A80396FFF75EFDB04200DC21E6039BA3
:104510000136B34200D01CE62000FEF7C9FC18E6C5
:10452000241A0100291A0100321A01000F1A010091
:10453000D80000206E1A0100761A0100821A0100CC
:10454000F0B50024270085B003900291029B7933D7
:104550001B78A3422CD9029B1B197A331878029B33
:104560001818FEF789FE03780600002B1DD0050001
:104570002B780193202B03D93D2B01D00135F7E790
:104580002800FEF779FE03783D2B0ED10130FEF7AF
:1045900073FE002302002B7031000398FFF75AFDD1
:1045A000019B2B70431E98413F180134E4B2CDE7C4
:1045B000380005B0F0BD0000F8B5022207213248EE
:1045C00003F000FA314D0024280003F057FD304B72
:1045D00022002B602B004033280021001C70230098
:1045E00004F041F828003A2104F06BF82B003C223B
:1045F00001273033274E1A70274B3200EB63280017
:1046000026496F63AC63EC7608F0D2FE244D52234A
:1046100006223900280003F037F93200280021492A
:1046200008F0C6FE2022204B013A1C605C609C60B2
:10463000DC601C611C77DC772033002AF4D1022077
:1046400001211A4B1A4C1A819A72DA725A739A73B0
:10465000DA731A7059709970DA701A715A71DA80B7
:10466000DA611A62DC849A619A841A825A829A8286
:10467000DA821A869A62DA625A863833012800D1C1
:10468000F8BD0800DFE7C046FC070020A4120020A8
:10469000001B0100B800002020A107009D2600009B
:1046A000E00900207577000004030020301400208A
:1046B000B80B000010B50100014804F060FE10BD09
:1046C000B417002010B50400044804F044FE0300B1
:1046D0000020834201DB2370013010BDB41700209D
:1046E0000023F0B585B0019302ABD81DFFF7EAFFB8
:1046F000002800DC93E0019B0133019302ABDB79DE
:10470000032B01D1FFF73EF8464C02ABD9792000CC
:10471000FEF7FEF82300022292331B781342E3D007
:104720006378502B56D1A3784F2B53D1E378472B86
:1047300050D123794E2B4DD16379532B4AD123008D
:1047400078331B78032B1DD9E318DA1E12782A2A36
:1047500018D1991E08782100013B1F78030093317E
:104760000E787B405E405640FEF713F9051E31DBA4
:104770003800FEF70EF900282CDB2D012843C0B2CB
:10478000864227D1230079331B78274D002B2BD16C
:10479000264E28003100FEF733FC254F310038004B
:1047A00001F07DFF31002800FEF79EFC310038004B
:1047B00001F075FF31002800FEF7DEFC3100380003
:1047C00001F06DFF31002800FEF71EFD31003800BA
:1047D00001F065FF22000023923213702200793429
:1047E0007832137023707FE721002800FFF7A8FEBE
:1047F000FEF7C8FF290000220E4B01C901321B1829
:10480000432AFAD12A00FC32D168FE20CB1AD360A9
:10481000862229005200400206F0C8FDDAE701981E
:1048200005B0F0BD94130020F4010020E008002042
:10483000B5460000EFCDAB890300F0B540331B78DF
:1048400087B0050000AF002B05D0C36B826B416BB6
:10485000BA4804F097FF02222B7E934300D09AE0DF
:10486000FD32BB603B61FA607A61AA8AD20893424A
:1048700034DA00221C1C698A8A422CDA5943EE6819
:10488000891889B27618B446A868EE68405C715CF5
:1048900081421BD07E69397D9E4200D9211C3E6930
:1048A000C9B27961397C9E4200D2211CFE68C9B22E
:1048B0003961397B964200D9111CBE68C9B2F960D2
:1048C000397A964200D2111CC9B2B96061460132F0
:1048D0000870D2B2CFE70133DBB2C6E77B69FF2BAA
:1048E00056D02B68212128009B6998472B68280007
:1048F0009B69F96898472B6828009B69B9689847B5
:104900002B68222128009B6998472B6828009B6907
:10491000796998472B6828009B6939699847002472
:104920003B697A6993422ED3FB687B607A68BB68E7
:10493000934223D3002C0AD12B00804E3033300019
:10494000197805F01AF84021300004F09FFE7A69CA
:104950006B8A79685343AA68784E52180134300044
:10496000D15CE4B204F092FE102C03D1300005F0CB
:104970000DF800247B680133DBB2D6E77B69013395
:10498000DBB27B61CCE7002C02D06C4804F0FEFF68
:10499000BD4607B0F0BD6B466946EA8A3B60D31D51
:1049A000DB08DB00CB1A9D46002168467B600CF0DB
:1049B000E9F96B8A00227B6107239C467B6990B2F0
:1049C000984226D2AE8AD310734379686446CB18D6
:1049D00000210440BC6088B23861B04217D27869C7
:1049E000CC104443A86801318018005D3C69F86030
:1049F000604604402000FC6804412000012420405F
:104A0000BC68A0401C78204318700133E3E70132F2
:104A1000D4E7FF2200231600FB603A617B616A8ABB
:104A2000D208934232DA00229C46A98A8A422ADAC4
:104A300059437868891889B2445CE8684018B860BE
:104A4000E868415CA14219D0311C9E4200D9614600
:104A50007869CEB2397D984200D261463869C9B2D0
:104A60007961397C904200D9111CF868C9B239616A
:104A7000397B904200D2111CC9B2F960B968013289
:104A80000C70D2B2D1E70133DBB2C8E7FF2E02D1FE
:104A90003B689D467CE72B68212128009B6998474D
:104AA0002B6828009B69396998472B6828009B6907
:104AB000F96898472B68222128009B6998472B6842
:104AC000310028009B6998472B6828009B69796909
:104AD000984700247B69B34229D33B69BB60BA681D
:104AE000FB68934220D3002C09D12B003033197876
:104AF000124804F042FF4021104804F0C7FDAB8A81
:104B0000B96873437A6801345218D15C0B48E4B237
:104B100004F0BCFD102C03D1084804F037FF00243A
:104B2000BB680133DBB2D9E70136F6B2D2E7002C1D
:104B3000AED0024804F02AFFAAE7C046EC170020D6
:104B4000F0B506218BB01A2002F02AFA00211A20B3
:104B500002F034FA642002F03FFB8622FE20784CFB
:104B600052002100400206F0ADFC21000022754BEE
:104B700001C901321B18432AFAD1002B02D02000B0
:104B8000FEF796F9704F714839000CF036FA70490B
:104B900070480CF032FA01230025694E6E4CB26861
:104BA0005B4211026D4A0093029220006C4A090A8E
:104BB000019504F02FFC7821200004F004FD200072
:104BC000684905F0E1FD01211B2002F0E9F9664C7E
:104BD000200002F0DEFD200002F0BEFE20212000B9
:104BE00002F094FEFDF706FD604C200003F0CAFCC5
:104BF000200003F0AFFC0F2320000093202260214F
:104C0000DB1803F0C8FA0123200000932022602162
:104C1000213303F0C0FA01232022200000936021F9
:104C2000253303F0B8FA2000514903F091FC20002D
:104C3000022103F08BFC4F4907A805F0B0FE07AB3B
:104C40000E226021200003F06FFD07A805F04CFE46
:104C5000494907A805F0A3FE07AB1A2260212000EE
:104C600003F062FD07A805F03FFE2900200003F0D5
:104C70006DFC390007A805F092FE2A0007AB290059
:104C8000200003F051FD07A805F02EFE20003B494F
:104C900003F05EFC3A4F30003900FEF735F9390079
:104CA00007A8BD7205F07BFE07AB1022290020008B
:104CB00003F03AFD07A805F017FE254907A805F0FF
:104CC0006EFE362207AB2900200003F02DFD07A859
:104CD00005F00AFE2000FFF7AFFDE1212948090297
:104CE00003F01AF8F179284E49073000490FFDF713
:104CF0009FFE2648264B274C0360274B4360274BDB
:104D00008360236805939847E3682A002900059388
:104D100030000123FDF7D6FEB36858437368C0180E
:104D2000059B9847FDF780FCFDF7BAFD636B2800F3
:104D3000059398471A4B1B4A5A601A600BB0F0BD96
:104D4000F4010020EFCDAB898B1A0100C8020020CE
:104D5000921A0100D8020020B4170020204E000053
:104D6000220800009D1A0100E0090020A412002082
:104D7000782601008E1A0100C51A0100CD1B010022
:104D8000E0080020FC070020A007002058070020B2
:104D9000BD25000080500100CD25000085270000C2
:104DA0008413002040F2FFFFF0B58FB002F018FA34
:104DB000C04D04001B202E6802F034F9BE4ABF49E2
:104DC0001368002835D0632B05D9BD48036801332B
:104DD000022B2CDC0360002313600B700B782C601B
:104DE0000293002B2ED0B74802F0F8FDB64BDB6AD9
:104DF00002939847B54803F05FF9B54C200004F0E2
:104E00001DFDFDF7E7FB200004F018FDB14804F09C
:104E1000CFFB262002F064F900211A2002F0C0F82E
:104E20000021102002F0BCF806F078FAFCE700231D
:104E3000D0E79B1B1B191360FA2292009342CDD33B
:104E40000123CAE7F023A4489B00C1580433C35888
:104E5000994233D0A14BA24F8026DA5DF60003922F
:104E600052019C180692E27F944665469A5B521B5B
:104E70009A53029A9B4EE2779A553C2359439A4A99
:104E800008181C3B2100FEF7A7FD0496002815D149
:104E9000237F9F2B12D8954923680868E278434006
:104EA0001B0203D1CB7853409B0705D0442311004C
:104EB000194005911A4251D0FDF78CFBFFF710FC09
:104EC0000023804C0393200002F094FD002800DCB6
:104ED0004FE2200002F0CAFE854DC3B2190028003F
:104EE0000593FDF715FD2B00022292331B78134228
:104EF0002DD06B78472B06D0422B00D02FE2AA781A
:104F0000442A00D02BE2EA78472A00D027E22A7907
:104F1000532A00D023E26A79562A00D01FE2472B99
:104F200000D0D8E1AB78502B00D032E12800FDF75B
:104F3000E8FB0024A04200D035E16D4B00221900AF
:104F400092310A701900793378310A701A70059914
:104F5000604804F014FA039B0133B2E70821201DD6
:104F600001F016FE200008210C3001F011FE614B0B
:104F70001B78002B00D18EE08026636876011A0230
:104F80005D4B52111B680432D21A5C4B5A43921982
:104F90005213D11752184A40802109028A427ADA04
:104FA000A26857481202006812110832121A5343BD
:104FB0009B195B13DA1798185040524A90426ADCEA
:104FC000514A12885343802212019B181B13DA178F
:104FD0009B1853408B425EDA0323E356E278002BA2
:104FE00000DB95E0FF23E3773C4B069A00209A58BC
:104FF00006009201920906928022D2009C5A9C4699
:105000000200039991420ED01968069D8901890911
:105010008D4208D1D97F0498641A6146DE770E5418
:105020000120A4B2CA550132D2B22033202AE8D1DD
:1050300080222A4BD200002800D09C520399985A13
:1050400049015918C97F039C40189852D85DA04265
:1050500000D096E0D87F04992C4C585481B29952D4
:105060000022DA55013216002578491989B2A84282
:1050700002D92800059202960132D2B22034202AA9
:10508000F2D18022D2009952029A002A03D0049AC7
:105090009854059ADA55F021F1200F4A89008000D2
:1050A00053581058834200D108E70F2001330340C2
:1050B000535003E7F8070020B0070020AC0700209A
:1050C00094070020FC07002080500100A41200205B
:1050D000EC170020B4170020F4090020040300207E
:1050E0000304000002040000C40D0020F4010020AD
:1050F000EC1200209807002050070020ED0500006A
:1051000090070020FCFF0100140100204303002051
:10511000BE4B1E68059BE377530700D564E7E37930
:105120009B069B0E3B2B00D95EE730231A4200D032
:105130005AE7A37F802B02D9803B9B10E37753066D
:1051400000D551E7A0898004800CFEF75FFB0A219F
:105150000500300008F018FD461B002E03DDE07F3F
:10516000B6118619E67723695803C00D01F0E6FCF5
:10517000002800DB38E7E37F4042C010C018E0772A
:1051800032E7049A9A5C8A4285D9049A9954039A20
:1051900080E74C2B00D096E02800FDF7B2FA0124FE
:1051A000002800D1C9E62E0079363378022B00D8CA
:1051B000C3E62B007A331B78E85C01F05FFB0690B6
:1051C000002800DAB9E63378012B01D801F03EFA65
:1051D0002B007B331B78E85C01F050FB0490002827
:1051E00000DAAAE633780020022B03D92B007C33A7
:1051F0001878281801F061FB00287BDB049B012B49
:1052000005D10022824963005A52824B1A55032568
:10521000814B0293814B1A0079321278AA427ADDCF
:10522000EFB20020974202D2029A1078C01801F023
:1052300044FB00286FDB794A7B1C11007931097827
:10524000DBB20020AE1C994202D9029B587880182C
:1052500001F033FB00285EDBEB1C07936F4B02373A
:105260001A0079321278FFB20020BA4205D9FF2223
:1052700016409E197A363078C01801F032FB0028AB
:1052800049DB664A0435110079316B1E0978DBB2BF
:105290000020994206D9FF21079B0B40D3187A338F
:1052A0001878801801F009FB002808DD584A6100D1
:1052B0008B5A18188852574A135D01331355029BB5
:1052C00004330293A6E7412B00D036E62800FDF711
:1052D00018FA022464E7422B00D02EE6AB78442B68
:1052E00000D02AE62800FDF70CFA002800D124E6B9
:1052F000032458E72B0079331B78022B01D801F0E7
:10530000A5F92B007C331B78E85C01F0B7FA002884
:1053100000DA12E672E7069B049A934200D00CE68C
:105320000023180019003B4C394D1A5D002A05D0A6
:1053300051185A00525BC9B2801880B20133042B55
:10534000F3D1374B374C1970002906D04B08800039
:10535000C01808F0A3FC2080EFE52180EDE538229D
:10536000314B32481B6829005343C018FEF772FDC9
:10537000E3E5039B2E4C002B38D123680120013339
:10538000236001F029FF2B4A1378049304992368C2
:10539000002963D0022B0CD80023137001F020FFEA
:1053A000254B264A9B7CC01A254B18601368013395
:1053B000136001F015FF234E01003578002D01D058
:1053C00001F02FF9204C1E4B20681B68002801D1EA
:1053D00001F007F91D4A12689A188A4201D901F0B2
:1053E00000F9FDF73DFA25600FB0F0BD0020184B25
:1053F00020601B6C02939847164B40001A681018E7
:10540000154A1860136801331360BCE74C0700208D
:10541000A41400201007002069130020EC120020C3
:10542000F0010020F2010020E812002030140020DA
:105430002C14002028140020F40100205407002020
:10544000EC01002080130020BC0D00208C130020F4
:1054500080500100A01400200C070020052BA8D9C3
:10546000E64E3168002916D0E54FE64D386808F061
:1054700015FC6C682B680001001B1B01C01808306C
:1054800000112860001BA4000419049B0234A4101E
:105490006C603B603360DC4801F0A7FBDB4B1B68B2
:1054A00002933823029A5343D94AD3181A7B0393A1
:1054B000D84B03981A70FDF79BFBD74C002800D1FE
:1054C000F2E20398FDF7A1FB002800D1ECE20021F5
:1054D000FF230A000191200000930B0002F0EBF97A
:1054E000200002F0A8F90398FDF7AEFBCB4B186043
:1054F000CB493F250C0040342378CA48013B2B4060
:105500002370CC5C0278CA54121B0024C64B047072
:10551000198852181A80C14B3C211868143808F0B9
:10552000B9FBCBB209938023C04AC149DB00D55AED
:10553000C04B8C46D75C565C0693012310002100BB
:105540000592220064469C460894C37F0793002B73
:1055500012D0B64C5301E318DB79099C9B069B0ED5
:105560009C4201D03B2B07D9079B6146ED1A0023D3
:105570001F00D6B2ADB2C37701322030202AE4D169
:10558000002907D08022A94BD2009D52069A9F5431
:10559000089A9E540398FDF7FDFB002800D16FE1A7
:1055A0003823029A53439A4AD3189969A24A186A2F
:1055B0001160DA69A1490A60A1490860D98CA14B40
:1055C0001980A14B0121C418A04B9C420ED9A04BBD
:1055D00049189A420ADC9F4B0131984206DD0021AE
:1055E0009D4BD3189D4A9A424941033138259C4826
:1055F000FDF71EFA029B864E5D437519AB69D8B262
:10560000FCF7D2FF287CFCF7CFFFEB69D8B2FCF7A0
:10561000CBFF2B6AD8B2FCF7C7FF7B48043001F000
:10562000DBFA904F904C3B6820009B019B09236064
:10563000FDF7E4F9FA78AD7A93066DB21B0FD20943
:10564000281C032D00DD03203F27E179800139402C
:105650000843E07107208449D2001B0113438A7C70
:10566000024013438B74002D0BDD3822029B5A43FA
:10567000674B9B18DB7A5BB2012B02DD01221340E2
:1056800004937F20049BCA7ADB0102401343382233
:10569000CB72029B5A435E4B9B18587B002800D16B
:1056A0000EE20A38C0B2FEF7CDF83F233F22184081
:1056B000E37AFA21934318433823E072029A4900AF
:1056C0005343534AD2180523D3560620125E8A420A
:1056D00006DBDAB2531C5BB23B2B01DD3B3A53B223
:1056E0003F21E2790B408A431343E3713823029A46
:1056F0005343F318DA6951016268090A120E12065F
:105700000A4362601A6A1101A268090A120E12069F
:105710000A43A26010229A5E00239A420FDB93B2E2
:10572000FF2A0BDDC02189008A4200DBCAE180220A
:10573000013BFF3B5B10520013439BB21BB24A4C30
:105740004A4AE1689B050A401B0A1343E360382379
:10575000E121029A09015343F6181223F05E8002F8
:10576000B43008F09BFA8005830D208A800A8002FD
:10577000184320821423F05E01F0D2F9C00522699B
:10578000430B3B481040184320611623F05E01F0A4
:1057900087F9E073B3690A21581D08F07FFAC34303
:1057A000DB17184080B2FEF705F8A38980049B0B35
:1057B000800C9B030343A381337A9B07DA0F002BF2
:1057C00000DB9BE180B2FEF721F80500F06A0A21B8
:1057D000053008F063FA451BFF2D00DC87E1FF254B
:1057E000FF231B022B405A4253414021E27A9B0186
:1057F0008A431343E372E5743CE0C0460C07002083
:10580000A01400208413002018010020E8120020BA
:105810003014002098070020E009002054070020E1
:10582000B40700209C0700209A07002004030020F2
:1058300003040000020400004C0700205007002071
:105840009007002014010020001BB700006CDC0250
:10585000FF1AB7000077DD05FF73B7017ECBA40008
:10586000A0070020F401002014070020FF3F00FFE4
:10587000FF03F8FF2000FDF7CFF8200001F0B8F893
:10588000FEF72EFF04F0A8F89F4B1880FEF728FFC4
:105890009E4B9F4F1B6838009E4C0493012B00D1F8
:1058A0006CE1022B00D067E202F054FE21000024DC
:1058B000380002F04DFE3800002102F047FE964D00
:1058C00096482900FDF720FB2900AC7210250BA893
:1058D00005F065F83800220021000BAB02F024FF30
:1058E0000BA805F001F88E4F04943B78002B26D0CE
:1058F000049B894E8B4A9B00D158300000F0DFFE9C
:105900003A23841C335401301A3BE4B2C0B23354FE
:105910003900A01900F0D3FE20180024C0B23100D5
:1059200034540BA805F03BF82AB2210078480BABA1
:1059300002F0FAFE0BA804F0D7FF1035EDB23F2DB0
:1059400005D8049B1037013304930F2BCDD1704839
:105950000024FEF771FFFEF7C3FE734D734B7449CD
:105960002200096828001C700123FDF7ABF8714B79
:105970001870AB6858436B686F4DC018EB680493A0
:105980009847FCF751FEFCF78BFF6B6B20000493EC
:1059900098479021694DFF31286808F07BF9684BE2
:1059A0009131FF31196090216868FF3108F072F978
:1059B000C8239B00C918634E634B644D039819605C
:1059C00034602C60FDF7E6F9A04202D0604B3360F2
:1059D0002B60604B1A780392002A00D17EE3013AD3
:1059E0001A705D4B1C78002C01D100F0C6FC013C04
:1059F0001C7038252F00FCF7EDFD584B584C1E68E5
:105A000001237743E719734038000293FDF7C2F989
:105A1000002801D100F0BAFD029B5D436519280002
:105A2000FDF7B8F9002801D100F0B0FD00220A23EB
:105A30007A61EB56934201D100F0A8FD3800FDF7E2
:105A4000F1F803902800FDF7EDF80622AD5E06227E
:105A5000BB5EFA225B1B039D9200554342435D19D6
:105A6000404BAD1A9D4201DB00F021FD3E4BED188D
:105A70002DB2092D01DC00F089FD38231A00E12048
:105A8000029972434B43A218E118498A538AC00015
:105A90005B1A99B21BB2834201DC00F010FD334B5C
:105AA000C918D18200F00FFD002120006023FF22E1
:105AB0000191009101F0FFFE200001F0BCFE17E50E
:105AC000987BEEE5E022D200934205D2284A9B184B
:105AD00080229B1092002FE6F0221201934204D202
